{
    "_format": "hh-sol-artifact-1",
    "contractName": "TokenizedBallot",
    "sourceName": "contracts/TokenizedBallot.sol",
    "abi": [
        {
            "inputs": [
                {
                    "internalType": "bytes32[]",
                    "name": "proposalNames",
                    "type": "bytes32[]"
                },
                {
                    "internalType": "address",
                    "name": "_targetContract",
                    "type": "address"
                },
                {
                    "internalType": "uint256",
                    "name": "_targetBlockNumber",
                    "type": "uint256"
                }
            ],
            "stateMutability": "nonpayable",
            "type": "constructor"
        },
        {
            "inputs": [
                {
                    "internalType": "address",
                    "name": "",
                    "type": "address"
                }
            ],
            "name": "hasAlreadyVoted",
            "outputs": [
                {
                    "internalType": "bool",
                    "name": "",
                    "type": "bool"
                }
            ],
            "stateMutability": "view",
            "type": "function"
        },
        {
            "inputs": [
                {
                    "internalType": "uint256",
                    "name": "",
                    "type": "uint256"
                }
            ],
            "name": "proposals",
            "outputs": [
                {
                    "internalType": "bytes32",
                    "name": "name",
                    "type": "bytes32"
                },
                {
                    "internalType": "uint256",
                    "name": "voteCount",
                    "type": "uint256"
                }
            ],
            "stateMutability": "view",
            "type": "function"
        },
        {
            "inputs": [],
            "name": "targetBlockNumber",
            "outputs": [
                {
                    "internalType": "uint256",
                    "name": "",
                    "type": "uint256"
                }
            ],
            "stateMutability": "view",
            "type": "function"
        },
        {
            "inputs": [],
            "name": "targetContract",
            "outputs": [
                {
                    "internalType": "contract IMyToken",
                    "name": "",
                    "type": "address"
                }
            ],
            "stateMutability": "view",
            "type": "function"
        },
        {
            "inputs": [
                {
                    "internalType": "uint256",
                    "name": "proposal",
                    "type": "uint256"
                },
                {
                    "internalType": "uint256",
                    "name": "amount",
                    "type": "uint256"
                }
            ],
            "name": "vote",
            "outputs": [],
            "stateMutability": "nonpayable",
            "type": "function"
        },
        {
            "inputs": [
                {
                    "internalType": "address",
                    "name": "account",
                    "type": "address"
                }
            ],
            "name": "votingPower",
            "outputs": [
                {
                    "internalType": "uint256",
                    "name": "",
                    "type": "uint256"
                }
            ],
            "stateMutability": "view",
            "type": "function"
        },
        {
            "inputs": [],
            "name": "winnerName",
            "outputs": [
                {
                    "internalType": "bytes32",
                    "name": "winnerName_",
                    "type": "bytes32"
                }
            ],
            "stateMutability": "view",
            "type": "function"
        },
        {
            "inputs": [],
            "name": "winningProposal",
            "outputs": [
                {
                    "internalType": "uint256",
                    "name": "winningProposal_",
                    "type": "uint256"
                }
            ],
            "stateMutability": "view",
            "type": "function"
        }
    ],
    "bytecode": "0x608060405234801561001057600080fd5b506040516107c13803806107c183398101604081905261002f916100fe565b600080546001600160a01b0319166001600160a01b03841617815560028290555b83518110156100c35760016040518060400160405280868481518110610078576100786101d6565b602090810291909101810151825260009181018290528354600181810186559483529181902083516002909302019182559190910151910155806100bb816101ec565b915050610050565b50505050610213565b634e487b7160e01b600052604160045260246000fd5b80516001600160a01b03811681146100f957600080fd5b919050565b60008060006060848603121561011357600080fd5b83516001600160401b038082111561012a57600080fd5b818601915086601f83011261013e57600080fd5b8151602082821115610152576101526100cc565b8160051b604051601f19603f83011681018181108682111715610177576101776100cc565b60405292835281830193508481018201928a84111561019557600080fd5b948201945b838610156101b35785518552948201949382019361019a565b97506101c290508882016100e2565b955050505050604084015190509250925092565b634e487b7160e01b600052603260045260246000fd5b60006001820161020c57634e487b7160e01b600052601160045260246000fd5b5060010190565b61059f806102226000396000f3fe608060405234801561001057600080fd5b50600436106100885760003560e01c8063b384abef1161005b578063b384abef1461010c578063bd90df7014610121578063c07473f61461014c578063e2ba53f01461015f57600080fd5b8063013cf08b1461008d5780632a8cd29e146100ba578063609ff1bd146100d15780638574d5b0146100d9575b600080fd5b6100a061009b36600461048d565b610167565b604080519283526020830191909152015b60405180910390f35b6100c360025481565b6040519081526020016100b1565b6100c3610195565b6100fc6100e73660046104a6565b60036020526000908152604090205460ff1681565b60405190151581526020016100b1565b61011f61011a3660046104d6565b610212565b005b600054610134906001600160a01b031681565b6040516001600160a01b0390911681526020016100b1565b6100c361015a3660046104a6565b6103db565b6100c361045a565b6001818154811061017757600080fd5b60009182526020909120600290910201805460019091015490915082565b600080805b60015481101561020d5781600182815481106101b8576101b86104f8565b90600052602060002090600202016001015411156101fb57600181815481106101e3576101e36104f8565b90600052602060002090600202016001015491508092505b8061020581610524565b91505061019a565b505090565b3360009081526003602052604090205460ff16156102905760405162461bcd60e51b815260206004820152603060248201527f546f6b656e697a656442616c6c6f743a20766f74696e672074686520326e642060448201526f1d1a5b59481b9bdd08185b1b1bddd95960821b60648201526084015b60405180910390fd5b600061029b336103db565b1161030e5760405162461bcd60e51b815260206004820152603960248201527f546f6b656e697a656442616c6c6f743a20706f696e746c65737320747820617360448201527f20796f757220706f776572206c6576656c206973207a65726f000000000000006064820152608401610287565b80610318336103db565b10156103805760405162461bcd60e51b815260206004820152603160248201527f546f6b656e697a656442616c6c6f743a20747279696e6720746f20766f7465206044820152701b5bdc99481d1a185b88185b1b1bddd959607a1b6064820152608401610287565b336000908152600360205260409020805460ff191660019081179091558054829190849081106103b2576103b26104f8565b906000526020600020906002020160010160008282546103d2919061053d565b90915550505050565b60008054600254604051630748d63560e31b81526001600160a01b0385811660048301526024820192909252911690633a46b1a890604401602060405180830381865afa158015610430573d6000803e3d6000fd5b505050506040513d601f19601f820116820180604052508101906104549190610550565b92915050565b60006001610466610195565b81548110610476576104766104f8565b906000526020600020906002020160000154905090565b60006020828403121561049f57600080fd5b5035919050565b6000602082840312156104b857600080fd5b81356001600160a01b03811681146104cf57600080fd5b9392505050565b600080604083850312156104e957600080fd5b50508035926020909101359150565b634e487b7160e01b600052603260045260246000fd5b634e487b7160e01b600052601160045260246000fd5b6000600182016105365761053661050e565b5060010190565b808201808211156104545761045461050e565b60006020828403121561056257600080fd5b505191905056fea26469706673582212204c104044a15203194b0a1cfab6e87e184d64a163e6520e6739295119c8bdabd464736f6c63430008130033",
    "linkReferences": {},
    "deployedLinkReferences": {}
}